{
  "contractName": "Exobits",
  "abi": [
    {
      "inputs": [],
      "stateMutability": "nonpayable",
      "type": "constructor"
    },
    {
      "anonymous": false,
      "inputs": [
        {
          "indexed": true,
          "internalType": "address",
          "name": "owner",
          "type": "address"
        },
        {
          "indexed": true,
          "internalType": "address",
          "name": "approved",
          "type": "address"
        },
        {
          "indexed": true,
          "internalType": "uint256",
          "name": "tokenId",
          "type": "uint256"
        }
      ],
      "name": "Approval",
      "type": "event"
    },
    {
      "anonymous": false,
      "inputs": [
        {
          "indexed": true,
          "internalType": "address",
          "name": "owner",
          "type": "address"
        },
        {
          "indexed": true,
          "internalType": "address",
          "name": "operator",
          "type": "address"
        },
        {
          "indexed": false,
          "internalType": "bool",
          "name": "approved",
          "type": "bool"
        }
      ],
      "name": "ApprovalForAll",
      "type": "event"
    },
    {
      "anonymous": false,
      "inputs": [
        {
          "indexed": true,
          "internalType": "address",
          "name": "previousOwner",
          "type": "address"
        },
        {
          "indexed": true,
          "internalType": "address",
          "name": "newOwner",
          "type": "address"
        }
      ],
      "name": "OwnershipTransferred",
      "type": "event"
    },
    {
      "anonymous": false,
      "inputs": [
        {
          "indexed": true,
          "internalType": "address",
          "name": "from",
          "type": "address"
        },
        {
          "indexed": true,
          "internalType": "address",
          "name": "to",
          "type": "address"
        },
        {
          "indexed": true,
          "internalType": "uint256",
          "name": "tokenId",
          "type": "uint256"
        }
      ],
      "name": "Transfer",
      "type": "event"
    },
    {
      "inputs": [
        {
          "internalType": "string",
          "name": "",
          "type": "string"
        }
      ],
      "name": "_keyId",
      "outputs": [
        {
          "internalType": "uint256",
          "name": "",
          "type": "uint256"
        }
      ],
      "stateMutability": "view",
      "type": "function"
    },
    {
      "inputs": [
        {
          "internalType": "address",
          "name": "to",
          "type": "address"
        },
        {
          "internalType": "uint256",
          "name": "tokenId",
          "type": "uint256"
        }
      ],
      "name": "approve",
      "outputs": [],
      "stateMutability": "nonpayable",
      "type": "function"
    },
    {
      "inputs": [
        {
          "internalType": "address",
          "name": "owner",
          "type": "address"
        }
      ],
      "name": "balanceOf",
      "outputs": [
        {
          "internalType": "uint256",
          "name": "",
          "type": "uint256"
        }
      ],
      "stateMutability": "view",
      "type": "function"
    },
    {
      "inputs": [
        {
          "internalType": "uint256",
          "name": "tokenId",
          "type": "uint256"
        }
      ],
      "name": "getApproved",
      "outputs": [
        {
          "internalType": "address",
          "name": "",
          "type": "address"
        }
      ],
      "stateMutability": "view",
      "type": "function"
    },
    {
      "inputs": [
        {
          "internalType": "address",
          "name": "owner",
          "type": "address"
        },
        {
          "internalType": "address",
          "name": "operator",
          "type": "address"
        }
      ],
      "name": "isApprovedForAll",
      "outputs": [
        {
          "internalType": "bool",
          "name": "",
          "type": "bool"
        }
      ],
      "stateMutability": "view",
      "type": "function"
    },
    {
      "inputs": [
        {
          "internalType": "uint256",
          "name": "",
          "type": "uint256"
        }
      ],
      "name": "keys",
      "outputs": [
        {
          "internalType": "string",
          "name": "",
          "type": "string"
        }
      ],
      "stateMutability": "view",
      "type": "function"
    },
    {
      "inputs": [],
      "name": "name",
      "outputs": [
        {
          "internalType": "string",
          "name": "",
          "type": "string"
        }
      ],
      "stateMutability": "view",
      "type": "function"
    },
    {
      "inputs": [],
      "name": "owner",
      "outputs": [
        {
          "internalType": "address",
          "name": "",
          "type": "address"
        }
      ],
      "stateMutability": "view",
      "type": "function"
    },
    {
      "inputs": [
        {
          "internalType": "uint256",
          "name": "tokenId",
          "type": "uint256"
        }
      ],
      "name": "ownerOf",
      "outputs": [
        {
          "internalType": "address",
          "name": "",
          "type": "address"
        }
      ],
      "stateMutability": "view",
      "type": "function"
    },
    {
      "inputs": [],
      "name": "renounceOwnership",
      "outputs": [],
      "stateMutability": "nonpayable",
      "type": "function"
    },
    {
      "inputs": [
        {
          "internalType": "address",
          "name": "from",
          "type": "address"
        },
        {
          "internalType": "address",
          "name": "to",
          "type": "address"
        },
        {
          "internalType": "uint256",
          "name": "tokenId",
          "type": "uint256"
        }
      ],
      "name": "safeTransferFrom",
      "outputs": [],
      "stateMutability": "nonpayable",
      "type": "function"
    },
    {
      "inputs": [
        {
          "internalType": "address",
          "name": "from",
          "type": "address"
        },
        {
          "internalType": "address",
          "name": "to",
          "type": "address"
        },
        {
          "internalType": "uint256",
          "name": "tokenId",
          "type": "uint256"
        },
        {
          "internalType": "bytes",
          "name": "_data",
          "type": "bytes"
        }
      ],
      "name": "safeTransferFrom",
      "outputs": [],
      "stateMutability": "nonpayable",
      "type": "function"
    },
    {
      "inputs": [
        {
          "internalType": "address",
          "name": "operator",
          "type": "address"
        },
        {
          "internalType": "bool",
          "name": "approved",
          "type": "bool"
        }
      ],
      "name": "setApprovalForAll",
      "outputs": [],
      "stateMutability": "nonpayable",
      "type": "function"
    },
    {
      "inputs": [],
      "name": "symbol",
      "outputs": [
        {
          "internalType": "string",
          "name": "",
          "type": "string"
        }
      ],
      "stateMutability": "view",
      "type": "function"
    },
    {
      "inputs": [
        {
          "internalType": "uint256",
          "name": "index",
          "type": "uint256"
        }
      ],
      "name": "tokenByIndex",
      "outputs": [
        {
          "internalType": "uint256",
          "name": "",
          "type": "uint256"
        }
      ],
      "stateMutability": "view",
      "type": "function"
    },
    {
      "inputs": [
        {
          "internalType": "address",
          "name": "owner",
          "type": "address"
        },
        {
          "internalType": "uint256",
          "name": "index",
          "type": "uint256"
        }
      ],
      "name": "tokenOfOwnerByIndex",
      "outputs": [
        {
          "internalType": "uint256",
          "name": "",
          "type": "uint256"
        }
      ],
      "stateMutability": "view",
      "type": "function"
    },
    {
      "inputs": [],
      "name": "totalSupply",
      "outputs": [
        {
          "internalType": "uint256",
          "name": "",
          "type": "uint256"
        }
      ],
      "stateMutability": "view",
      "type": "function"
    },
    {
      "inputs": [
        {
          "internalType": "address",
          "name": "from",
          "type": "address"
        },
        {
          "internalType": "address",
          "name": "to",
          "type": "address"
        },
        {
          "internalType": "uint256",
          "name": "tokenId",
          "type": "uint256"
        }
      ],
      "name": "transferFrom",
      "outputs": [],
      "stateMutability": "nonpayable",
      "type": "function"
    },
    {
      "inputs": [
        {
          "internalType": "address",
          "name": "newOwner",
          "type": "address"
        }
      ],
      "name": "transferOwnership",
      "outputs": [],
      "stateMutability": "nonpayable",
      "type": "function"
    },
    {
      "inputs": [
        {
          "internalType": "string",
          "name": "_key",
          "type": "string"
        },
        {
          "internalType": "string",
          "name": "_uri",
          "type": "string"
        }
      ],
      "name": "autoMint",
      "outputs": [
        {
          "internalType": "uint256",
          "name": "",
          "type": "uint256"
        }
      ],
      "stateMutability": "payable",
      "type": "function"
    },
    {
      "inputs": [
        {
          "internalType": "uint256",
          "name": "tokenId",
          "type": "uint256"
        }
      ],
      "name": "tokenURI",
      "outputs": [
        {
          "internalType": "string",
          "name": "",
          "type": "string"
        }
      ],
      "stateMutability": "view",
      "type": "function"
    },
    {
      "inputs": [
        {
          "internalType": "bytes4",
          "name": "interfaceId",
          "type": "bytes4"
        }
      ],
      "name": "supportsInterface",
      "outputs": [
        {
          "internalType": "bool",
          "name": "",
          "type": "bool"
        }
      ],
      "stateMutability": "view",
      "type": "function"
    },
    {
      "inputs": [
        {
          "internalType": "string",
          "name": "_key",
          "type": "string"
        }
      ],
      "name": "ownerOfKey",
      "outputs": [
        {
          "internalType": "address",
          "name": "",
          "type": "address"
        }
      ],
      "stateMutability": "view",
      "type": "function"
    },
    {
      "inputs": [
        {
          "internalType": "string",
          "name": "_key",
          "type": "string"
        }
      ],
      "name": "tokenByKey",
      "outputs": [
        {
          "internalType": "uint256",
          "name": "",
          "type": "uint256"
        }
      ],
      "stateMutability": "view",
      "type": "function"
    },
    {
      "inputs": [
        {
          "internalType": "address",
          "name": "_owner",
          "type": "address"
        }
      ],
      "name": "tokensOfOwner",
      "outputs": [
        {
          "internalType": "uint256[]",
          "name": "ownerTokens",
          "type": "uint256[]"
        }
      ],
      "stateMutability": "view",
      "type": "function"
    },
    {
      "inputs": [],
      "name": "JsSource",
      "outputs": [
        {
          "internalType": "string",
          "name": "",
          "type": "string"
        }
      ],
      "stateMutability": "pure",
      "type": "function"
    },
    {
      "inputs": [],
      "name": "AboutExoBits",
      "outputs": [
        {
          "internalType": "string",
          "name": "",
          "type": "string"
        }
      ],
      "stateMutability": "pure",
      "type": "function"
    }
  ],
  "bytecode": "0x60806040523480156200001157600080fd5b506040518060400160405280600781526020017f45786f42697473000000000000000000000000000000000000000000000000008152506040518060400160405280600381526020017f584f42000000000000000000000000000000000000000000000000000000000081525081600090805190602001906200009692919062000171565b508060019080519060200190620000af92919062000171565b5050506000620000c46200016960201b60201c565b905080600b60006101000a81548173ffffffffffffffffffffffffffffffffffffffff021916908373ffffffffffffffffffffffffffffffffffffffff1602179055508073ffffffffffffffffffffffffffffffffffffffff16600073ffffffffffffffffffffffffffffffffffffffff167f8be0079c531659141344cd1fd0a4f28419497f9722a3daafe3b4186f6b6457e060405160405180910390a35062000286565b600033905090565b8280546200017f9062000221565b90600052602060002090601f016020900481019282620001a35760008555620001ef565b82601f10620001be57805160ff1916838001178555620001ef565b82800160010185558215620001ef579182015b82811115620001ee578251825591602001919060010190620001d1565b5b509050620001fe919062000202565b5090565b5b808211156200021d57600081600090555060010162000203565b5090565b600060028204905060018216806200023a57607f821691505b6020821081141562000251576200025062000257565b5b50919050565b7f4e487b7100000000000000000000000000000000000000000000000000000000600052602260045260246000fd5b614eb280620002966000396000f3fe60806040526004361061019c5760003560e01c8063715018a6116100ec578063c502bc951161008a578063daa9930b11610064578063daa9930b1461062b578063e985e9c514610668578063f2fde38b146106a5578063f9d43a30146106ce5761019c565b8063c502bc9514610586578063c87b56dd146105b1578063cbcc1b61146105ee5761019c565b806395d89b41116100c657806395d89b41146104cc578063993ef9fa146104f7578063a22cb46514610534578063b88d4fde1461055d5761019c565b8063715018a61461044d5780638462151c146104645780638da5cb5b146104a15761019c565b806323b872dd116101595780634f6ccce7116101335780634f6ccce7146103665780636352211e146103a3578063698f41f9146103e057806370a08231146104105761019c565b806323b872dd146102d75780632f745c591461030057806342842e0e1461033d5761019c565b806301ffc9a7146101a157806306fdde03146101de578063081812fc14610209578063095ea7b3146102465780630cb6aaf11461026f57806318160ddd146102ac575b600080fd5b3480156101ad57600080fd5b506101c860048036038101906101c39190612ebd565b6106f9565b6040516101d59190613a04565b60405180910390f35b3480156101ea57600080fd5b506101f361070b565b6040516102009190613a1f565b60405180910390f35b34801561021557600080fd5b50610230600480360381019061022b9190612fbc565b61079d565b60405161023d919061397b565b60405180910390f35b34801561025257600080fd5b5061026d60048036038101906102689190612e81565b610822565b005b34801561027b57600080fd5b5061029660048036038101906102919190612fbc565b61093a565b6040516102a39190613a1f565b60405180910390f35b3480156102b857600080fd5b506102c16109e6565b6040516102ce9190613d01565b60405180910390f35b3480156102e357600080fd5b506102fe60048036038101906102f99190612d7b565b6109f3565b005b34801561030c57600080fd5b5061032760048036038101906103229190612e81565b610a53565b6040516103349190613d01565b60405180910390f35b34801561034957600080fd5b50610364600480360381019061035f9190612d7b565b610af8565b005b34801561037257600080fd5b5061038d60048036038101906103889190612fbc565b610b18565b60405161039a9190613d01565b60405180910390f35b3480156103af57600080fd5b506103ca60048036038101906103c59190612fbc565b610baf565b6040516103d7919061397b565b60405180910390f35b6103fa60048036038101906103f59190612f50565b610c61565b6040516104079190613d01565b60405180910390f35b34801561041c57600080fd5b5061043760048036038101906104329190612d16565b610df6565b6040516104449190613d01565b60405180910390f35b34801561045957600080fd5b50610462610eae565b005b34801561047057600080fd5b5061048b60048036038101906104869190612d16565b610feb565b60405161049891906139e2565b60405180910390f35b3480156104ad57600080fd5b506104b66111bb565b6040516104c3919061397b565b60405180910390f35b3480156104d857600080fd5b506104e16111e5565b6040516104ee9190613a1f565b60405180910390f35b34801561050357600080fd5b5061051e60048036038101906105199190612f0f565b611277565b60405161052b9190613d01565b60405180910390f35b34801561054057600080fd5b5061055b60048036038101906105569190612e45565b6112a5565b005b34801561056957600080fd5b50610584600480360381019061057f9190612dca565b611426565b005b34801561059257600080fd5b5061059b611488565b6040516105a89190613a1f565b60405180910390f35b3480156105bd57600080fd5b506105d860048036038101906105d39190612fbc565b6114ab565b6040516105e59190613a1f565b60405180910390f35b3480156105fa57600080fd5b5061061560048036038101906106109190612f0f565b6114bd565b6040516106229190613d01565b60405180910390f35b34801561063757600080fd5b50610652600480360381019061064d9190612f0f565b6114e5565b60405161065f919061397b565b60405180910390f35b34801561067457600080fd5b5061068f600480360381019061068a9190612d3f565b611541565b60405161069c9190613a04565b60405180910390f35b3480156106b157600080fd5b506106cc60048036038101906106c79190612d16565b6115d5565b005b3480156106da57600080fd5b506106e3611781565b6040516106f09190613a1f565b60405180910390f35b6000610704826117a4565b9050919050565b60606000805461071a90613f9a565b80601f016020809104026020016040519081016040528092919081815260200182805461074690613f9a565b80156107935780601f1061076857610100808354040283529160200191610793565b820191906000526020600020905b81548152906001019060200180831161077657829003601f168201915b5050505050905090565b60006107a88261181e565b6107e7576040517f08c379a00000000000000000000000000000000000000000000000000000000081526004016107de90613c01565b60405180910390fd5b6004600083815260200190815260200160002060009054906101000a900473ffffffffffffffffffffffffffffffffffffffff169050919050565b600061082d82610baf565b90508073ffffffffffffffffffffffffffffffffffffffff168373ffffffffffffffffffffffffffffffffffffffff16141561089e576040517f08c379a000000000000000000000000000000000000000000000000000000000815260040161089590613ca1565b60405180910390fd5b8073ffffffffffffffffffffffffffffffffffffffff166108bd61188a565b73ffffffffffffffffffffffffffffffffffffffff1614806108ec57506108eb816108e661188a565b611541565b5b61092b576040517f08c379a000000000000000000000000000000000000000000000000000000000815260040161092290613b41565b60405180910390fd5b6109358383611892565b505050565b600d818154811061094a57600080fd5b90600052602060002001600091509050805461096590613f9a565b80601f016020809104026020016040519081016040528092919081815260200182805461099190613f9a565b80156109de5780601f106109b3576101008083540402835291602001916109de565b820191906000526020600020905b8154815290600101906020018083116109c157829003601f168201915b505050505081565b6000600880549050905090565b610a046109fe61188a565b8261194b565b610a43576040517f08c379a0000000000000000000000000000000000000000000000000000000008152600401610a3a90613cc1565b60405180910390fd5b610a4e838383611a29565b505050565b6000610a5e83610df6565b8210610a9f576040517f08c379a0000000000000000000000000000000000000000000000000000000008152600401610a9690613a61565b60405180910390fd5b600660008473ffffffffffffffffffffffffffffffffffffffff1673ffffffffffffffffffffffffffffffffffffffff168152602001908152602001600020600083815260200190815260200160002054905092915050565b610b1383838360405180602001604052806000815250611426565b505050565b6000610b226109e6565b8210610b63576040517f08c379a0000000000000000000000000000000000000000000000000000000008152600401610b5a90613ce1565b60405180910390fd5b60088281548110610b9d577f4e487b7100000000000000000000000000000000000000000000000000000000600052603260045260246000fd5b90600052602060002001549050919050565b6000806002600084815260200190815260200160002060009054906101000a900473ffffffffffffffffffffffffffffffffffffffff169050600073ffffffffffffffffffffffffffffffffffffffff168173ffffffffffffffffffffffffffffffffffffffff161415610c58576040517f08c379a0000000000000000000000000000000000000000000000000000000008152600401610c4f90613b81565b60405180910390fd5b80915050919050565b600080600e84604051610c749190613940565b90815260200160405180910390205414610cc3576040517f08c379a0000000000000000000000000000000000000000000000000000000008152600401610cba90613a41565b60405180910390fd5b660aa87bee538000341015610d0d576040517f08c379a0000000000000000000000000000000000000000000000000000000008152600401610d0490613c41565b60405180910390fd5b610d17600c611c85565b6000610d23600c611c9b565b9050610d2f3382611ca9565b600d84908060018154018082558091505060019003906000526020600020016000909190919091509080519060200190610d6a929190612b3a565b5080600e85604051610d7c9190613940565b908152602001604051809103902081905550610d988184611cc7565b6000610da26111bb565b90508073ffffffffffffffffffffffffffffffffffffffff166108fc349081150290604051600060405180830381858888f19350505050158015610dea573d6000803e3d6000fd5b50819250505092915050565b60008073ffffffffffffffffffffffffffffffffffffffff168273ffffffffffffffffffffffffffffffffffffffff161415610e67576040517f08c379a0000000000000000000000000000000000000000000000000000000008152600401610e5e90613b61565b60405180910390fd5b600360008373ffffffffffffffffffffffffffffffffffffffff1673ffffffffffffffffffffffffffffffffffffffff168152602001908152602001600020549050919050565b610eb661188a565b73ffffffffffffffffffffffffffffffffffffffff16610ed46111bb565b73ffffffffffffffffffffffffffffffffffffffff1614610f2a576040517f08c379a0000000000000000000000000000000000000000000000000000000008152600401610f2190613c21565b60405180910390fd5b600073ffffffffffffffffffffffffffffffffffffffff16600b60009054906101000a900473ffffffffffffffffffffffffffffffffffffffff1673ffffffffffffffffffffffffffffffffffffffff167f8be0079c531659141344cd1fd0a4f28419497f9722a3daafe3b4186f6b6457e060405160405180910390a36000600b60006101000a81548173ffffffffffffffffffffffffffffffffffffffff021916908373ffffffffffffffffffffffffffffffffffffffff160217905550565b60606000610ff883610df6565b9050600081141561107b57600067ffffffffffffffff811115611044577f4e487b7100000000000000000000000000000000000000000000000000000000600052604160045260246000fd5b6040519080825280602002602001820160405280156110725781602001602082028036833780820191505090505b509150506111b6565b60008167ffffffffffffffff8111156110bd577f4e487b7100000000000000000000000000000000000000000000000000000000600052604160045260246000fd5b6040519080825280602002602001820160405280156110eb5781602001602082028036833780820191505090505b50905060006110f86109e6565b9050600080600190505b8281116111ad578673ffffffffffffffffffffffffffffffffffffffff1661112982610baf565b73ffffffffffffffffffffffffffffffffffffffff16141561119a578084838151811061117f577f4e487b7100000000000000000000000000000000000000000000000000000000600052603260045260246000fd5b602002602001018181525050818061119690613fcc565b9250505b80806111a590613fcc565b915050611102565b83955050505050505b919050565b6000600b60009054906101000a900473ffffffffffffffffffffffffffffffffffffffff16905090565b6060600180546111f490613f9a565b80601f016020809104026020016040519081016040528092919081815260200182805461122090613f9a565b801561126d5780601f106112425761010080835404028352916020019161126d565b820191906000526020600020905b81548152906001019060200180831161125057829003601f168201915b5050505050905090565b600e818051602081018201805184825260208301602085012081835280955050505050506000915090505481565b6112ad61188a565b73ffffffffffffffffffffffffffffffffffffffff168273ffffffffffffffffffffffffffffffffffffffff16141561131b576040517f08c379a000000000000000000000000000000000000000000000000000000000815260040161131290613b01565b60405180910390fd5b806005600061132861188a565b73ffffffffffffffffffffffffffffffffffffffff1673ffffffffffffffffffffffffffffffffffffffff16815260200190815260200160002060008473ffffffffffffffffffffffffffffffffffffffff1673ffffffffffffffffffffffffffffffffffffffff16815260200190815260200160002060006101000a81548160ff0219169083151502179055508173ffffffffffffffffffffffffffffffffffffffff166113d561188a565b73ffffffffffffffffffffffffffffffffffffffff167f17307eab39ab6107e8899845ad3d59bd9653f200f220920489ca2b5937696c318360405161141a9190613a04565b60405180910390a35050565b61143761143161188a565b8361194b565b611476576040517f08c379a000000000000000000000000000000000000000000000000000000000815260040161146d90613cc1565b60405180910390fd5b61148284848484611d3b565b50505050565b6060604051806101a001604052806101778152602001614d066101779139905090565b60606114b682611d97565b9050919050565b6000600e826040516114cf9190613940565b9081526020016040518091039020549050919050565b6000806000600e846040516114fa9190613940565b9081526020016040518091039020541461153857611535600e846040516115219190613940565b908152602001604051809103902054610baf565b90505b80915050919050565b6000600560008473ffffffffffffffffffffffffffffffffffffffff1673ffffffffffffffffffffffffffffffffffffffff16815260200190815260200160002060008373ffffffffffffffffffffffffffffffffffffffff1673ffffffffffffffffffffffffffffffffffffffff16815260200190815260200160002060009054906101000a900460ff16905092915050565b6115dd61188a565b73ffffffffffffffffffffffffffffffffffffffff166115fb6111bb565b73ffffffffffffffffffffffffffffffffffffffff1614611651576040517f08c379a000000000000000000000000000000000000000000000000000000000815260040161164890613c21565b60405180910390fd5b600073ffffffffffffffffffffffffffffffffffffffff168173ffffffffffffffffffffffffffffffffffffffff1614156116c1576040517f08c379a00000000000000000000000000000000000000000000000000000000081526004016116b890613aa1565b60405180910390fd5b8073ffffffffffffffffffffffffffffffffffffffff16600b60009054906101000a900473ffffffffffffffffffffffffffffffffffffffff1673ffffffffffffffffffffffffffffffffffffffff167f8be0079c531659141344cd1fd0a4f28419497f9722a3daafe3b4186f6b6457e060405160405180910390a380600b60006101000a81548173ffffffffffffffffffffffffffffffffffffffff021916908373ffffffffffffffffffffffffffffffffffffffff16021790555050565b606060405180610bc00160405280610b968152602001614170610b969139905090565b60007f780e9d63000000000000000000000000000000000000000000000000000000007bffffffffffffffffffffffffffffffffffffffffffffffffffffffff1916827bffffffffffffffffffffffffffffffffffffffffffffffffffffffff19161480611817575061181682611ee9565b5b9050919050565b60008073ffffffffffffffffffffffffffffffffffffffff166002600084815260200190815260200160002060009054906101000a900473ffffffffffffffffffffffffffffffffffffffff1673ffffffffffffffffffffffffffffffffffffffff1614159050919050565b600033905090565b816004600083815260200190815260200160002060006101000a81548173ffffffffffffffffffffffffffffffffffffffff021916908373ffffffffffffffffffffffffffffffffffffffff160217905550808273ffffffffffffffffffffffffffffffffffffffff1661190583610baf565b73ffffffffffffffffffffffffffffffffffffffff167f8c5be1e5ebec7d5bd14f71427d1e84f3dd0314c0f7b2291e5b200ac8c7c3b92560405160405180910390a45050565b60006119568261181e565b611995576040517f08c379a000000000000000000000000000000000000000000000000000000000815260040161198c90613b21565b60405180910390fd5b60006119a083610baf565b90508073ffffffffffffffffffffffffffffffffffffffff168473ffffffffffffffffffffffffffffffffffffffff161480611a0f57508373ffffffffffffffffffffffffffffffffffffffff166119f78461079d565b73ffffffffffffffffffffffffffffffffffffffff16145b80611a205750611a1f8185611541565b5b91505092915050565b8273ffffffffffffffffffffffffffffffffffffffff16611a4982610baf565b73ffffffffffffffffffffffffffffffffffffffff1614611a9f576040517f08c379a0000000000000000000000000000000000000000000000000000000008152600401611a9690613c61565b60405180910390fd5b600073ffffffffffffffffffffffffffffffffffffffff168273ffffffffffffffffffffffffffffffffffffffff161415611b0f576040517f08c379a0000000000000000000000000000000000000000000000000000000008152600401611b0690613ae1565b60405180910390fd5b611b1a838383611fcb565b611b25600082611892565b6001600360008573ffffffffffffffffffffffffffffffffffffffff1673ffffffffffffffffffffffffffffffffffffffff1681526020019081526020016000206000828254611b759190613eb0565b925050819055506001600360008473ffffffffffffffffffffffffffffffffffffffff1673ffffffffffffffffffffffffffffffffffffffff1681526020019081526020016000206000828254611bcc9190613e29565b92505081905550816002600083815260200190815260200160002060006101000a81548173ffffffffffffffffffffffffffffffffffffffff021916908373ffffffffffffffffffffffffffffffffffffffff160217905550808273ffffffffffffffffffffffffffffffffffffffff168473ffffffffffffffffffffffffffffffffffffffff167fddf252ad1be2c89b69c2b068fc378daa952ba7f163c4a11628f55a4df523b3ef60405160405180910390a4505050565b6001816000016000828254019250508190555050565b600081600001549050919050565b611cc3828260405180602001604052806000815250611fdb565b5050565b611cd08261181e565b611d0f576040517f08c379a0000000000000000000000000000000000000000000000000000000008152600401611d0690613ba1565b60405180910390fd5b80600a60008481526020019081526020016000209080519060200190611d36929190612b3a565b505050565b611d46848484611a29565b611d5284848484612036565b611d91576040517f08c379a0000000000000000000000000000000000000000000000000000000008152600401611d8890613a81565b60405180910390fd5b50505050565b6060611da28261181e565b611de1576040517f08c379a0000000000000000000000000000000000000000000000000000000008152600401611dd890613be1565b60405180910390fd5b6000600a60008481526020019081526020016000208054611e0190613f9a565b80601f0160208091040260200160405190810160405280929190818152602001828054611e2d90613f9a565b8015611e7a5780601f10611e4f57610100808354040283529160200191611e7a565b820191906000526020600020905b815481529060010190602001808311611e5d57829003601f168201915b505050505090506000611e8b6121cd565b9050600081511415611ea1578192505050611ee4565b600082511115611ed6578082604051602001611ebe929190613957565b60405160208183030381529060405292505050611ee4565b611edf8461220a565b925050505b919050565b60007f80ac58cd000000000000000000000000000000000000000000000000000000007bffffffffffffffffffffffffffffffffffffffffffffffffffffffff1916827bffffffffffffffffffffffffffffffffffffffffffffffffffffffff19161480611fb457507f5b5e139f000000000000000000000000000000000000000000000000000000007bffffffffffffffffffffffffffffffffffffffffffffffffffffffff1916827bffffffffffffffffffffffffffffffffffffffffffffffffffffffff1916145b80611fc45750611fc3826122b1565b5b9050919050565b611fd683838361231b565b505050565b611fe5838361242f565b611ff26000848484612036565b612031576040517f08c379a000000000000000000000000000000000000000000000000000000000815260040161202890613a81565b60405180910390fd5b505050565b60006120578473ffffffffffffffffffffffffffffffffffffffff166125fd565b156121c0578373ffffffffffffffffffffffffffffffffffffffff1663150b7a0261208061188a565b8786866040518563ffffffff1660e01b81526004016120a29493929190613996565b602060405180830381600087803b1580156120bc57600080fd5b505af19250505080156120ed57506040513d601f19601f820116820180604052508101906120ea9190612ee6565b60015b612170573d806000811461211d576040519150601f19603f3d011682016040523d82523d6000602084013e612122565b606091505b50600081511415612168576040517f08c379a000000000000000000000000000000000000000000000000000000000815260040161215f90613a81565b60405180910390fd5b805181602001fd5b63150b7a0260e01b7bffffffffffffffffffffffffffffffffffffffffffffffffffffffff1916817bffffffffffffffffffffffffffffffffffffffffffffffffffffffff1916149150506121c5565b600190505b949350505050565b60606040518060400160405280600781526020017f697066733a2f2f00000000000000000000000000000000000000000000000000815250905090565b60606122158261181e565b612254576040517f08c379a000000000000000000000000000000000000000000000000000000000815260040161224b90613c81565b60405180910390fd5b600061225e6121cd565b9050600081511161227e57604051806020016040528060008152506122a9565b8061228884612610565b604051602001612299929190613957565b6040516020818303038152906040525b915050919050565b60007f01ffc9a7000000000000000000000000000000000000000000000000000000007bffffffffffffffffffffffffffffffffffffffffffffffffffffffff1916827bffffffffffffffffffffffffffffffffffffffffffffffffffffffff1916149050919050565b6123268383836127bd565b600073ffffffffffffffffffffffffffffffffffffffff168373ffffffffffffffffffffffffffffffffffffffff16141561236957612364816127c2565b6123a8565b8173ffffffffffffffffffffffffffffffffffffffff168373ffffffffffffffffffffffffffffffffffffffff16146123a7576123a6838261280b565b5b5b600073ffffffffffffffffffffffffffffffffffffffff168273ffffffffffffffffffffffffffffffffffffffff1614156123eb576123e681612978565b61242a565b8273ffffffffffffffffffffffffffffffffffffffff168273ffffffffffffffffffffffffffffffffffffffff1614612429576124288282612abb565b5b5b505050565b600073ffffffffffffffffffffffffffffffffffffffff168273ffffffffffffffffffffffffffffffffffffffff16141561249f576040517f08c379a000000000000000000000000000000000000000000000000000000000815260040161249690613bc1565b60405180910390fd5b6124a88161181e565b156124e8576040517f08c379a00000000000000000000000000000000000000000000000000000000081526004016124df90613ac1565b60405180910390fd5b6124f460008383611fcb565b6001600360008473ffffffffffffffffffffffffffffffffffffffff1673ffffffffffffffffffffffffffffffffffffffff16815260200190815260200160002060008282546125449190613e29565b92505081905550816002600083815260200190815260200160002060006101000a81548173ffffffffffffffffffffffffffffffffffffffff021916908373ffffffffffffffffffffffffffffffffffffffff160217905550808273ffffffffffffffffffffffffffffffffffffffff16600073ffffffffffffffffffffffffffffffffffffffff167fddf252ad1be2c89b69c2b068fc378daa952ba7f163c4a11628f55a4df523b3ef60405160405180910390a45050565b600080823b905060008111915050919050565b60606000821415612658576040518060400160405280600181526020017f300000000000000000000000000000000000000000000000000000000000000081525090506127b8565b600082905060005b6000821461268a57808061267390613fcc565b915050600a826126839190613e7f565b9150612660565b60008167ffffffffffffffff8111156126cc577f4e487b7100000000000000000000000000000000000000000000000000000000600052604160045260246000fd5b6040519080825280601f01601f1916602001820160405280156126fe5781602001600182028036833780820191505090505b5090505b600085146127b1576001826127179190613eb0565b9150600a856127269190614015565b60306127329190613e29565b60f81b81838151811061276e577f4e487b7100000000000000000000000000000000000000000000000000000000600052603260045260246000fd5b60200101907effffffffffffffffffffffffffffffffffffffffffffffffffffffffffffff1916908160001a905350600a856127aa9190613e7f565b9450612702565b8093505050505b919050565b505050565b6008805490506009600083815260200190815260200160002081905550600881908060018154018082558091505060019003906000526020600020016000909190919091505550565b6000600161281884610df6565b6128229190613eb0565b9050600060076000848152602001908152602001600020549050818114612907576000600660008673ffffffffffffffffffffffffffffffffffffffff1673ffffffffffffffffffffffffffffffffffffffff168152602001908152602001600020600084815260200190815260200160002054905080600660008773ffffffffffffffffffffffffffffffffffffffff1673ffffffffffffffffffffffffffffffffffffffff168152602001908152602001600020600084815260200190815260200160002081905550816007600083815260200190815260200160002081905550505b6007600084815260200190815260200160002060009055600660008573ffffffffffffffffffffffffffffffffffffffff1673ffffffffffffffffffffffffffffffffffffffff16815260200190815260200160002060008381526020019081526020016000206000905550505050565b6000600160088054905061298c9190613eb0565b90506000600960008481526020019081526020016000205490506000600883815481106129e2577f4e487b7100000000000000000000000000000000000000000000000000000000600052603260045260246000fd5b906000526020600020015490508060088381548110612a2a577f4e487b7100000000000000000000000000000000000000000000000000000000600052603260045260246000fd5b906000526020600020018190555081600960008381526020019081526020016000208190555060096000858152602001908152602001600020600090556008805480612a9f577f4e487b7100000000000000000000000000000000000000000000000000000000600052603160045260246000fd5b6001900381819060005260206000200160009055905550505050565b6000612ac683610df6565b905081600660008573ffffffffffffffffffffffffffffffffffffffff1673ffffffffffffffffffffffffffffffffffffffff168152602001908152602001600020600083815260200190815260200160002081905550806007600084815260200190815260200160002081905550505050565b828054612b4690613f9a565b90600052602060002090601f016020900481019282612b685760008555612baf565b82601f10612b8157805160ff1916838001178555612baf565b82800160010185558215612baf579182015b82811115612bae578251825591602001919060010190612b93565b5b509050612bbc9190612bc0565b5090565b5b80821115612bd9576000816000905550600101612bc1565b5090565b6000612bf0612beb84613d4d565b613d1c565b905082815260208101848484011115612c0857600080fd5b612c13848285613f58565b509392505050565b6000612c2e612c2984613d7d565b613d1c565b905082815260208101848484011115612c4657600080fd5b612c51848285613f58565b509392505050565b600081359050612c6881614113565b92915050565b600081359050612c7d8161412a565b92915050565b600081359050612c9281614141565b92915050565b600081519050612ca781614141565b92915050565b600082601f830112612cbe57600080fd5b8135612cce848260208601612bdd565b91505092915050565b600082601f830112612ce857600080fd5b8135612cf8848260208601612c1b565b91505092915050565b600081359050612d1081614158565b92915050565b600060208284031215612d2857600080fd5b6000612d3684828501612c59565b91505092915050565b60008060408385031215612d5257600080fd5b6000612d6085828601612c59565b9250506020612d7185828601612c59565b9150509250929050565b600080600060608486031215612d9057600080fd5b6000612d9e86828701612c59565b9350506020612daf86828701612c59565b9250506040612dc086828701612d01565b9150509250925092565b60008060008060808587031215612de057600080fd5b6000612dee87828801612c59565b9450506020612dff87828801612c59565b9350506040612e1087828801612d01565b925050606085013567ffffffffffffffff811115612e2d57600080fd5b612e3987828801612cad565b91505092959194509250565b60008060408385031215612e5857600080fd5b6000612e6685828601612c59565b9250506020612e7785828601612c6e565b9150509250929050565b60008060408385031215612e9457600080fd5b6000612ea285828601612c59565b9250506020612eb385828601612d01565b9150509250929050565b600060208284031215612ecf57600080fd5b6000612edd84828501612c83565b91505092915050565b600060208284031215612ef857600080fd5b6000612f0684828501612c98565b91505092915050565b600060208284031215612f2157600080fd5b600082013567ffffffffffffffff811115612f3b57600080fd5b612f4784828501612cd7565b91505092915050565b60008060408385031215612f6357600080fd5b600083013567ffffffffffffffff811115612f7d57600080fd5b612f8985828601612cd7565b925050602083013567ffffffffffffffff811115612fa657600080fd5b612fb285828601612cd7565b9150509250929050565b600060208284031215612fce57600080fd5b6000612fdc84828501612d01565b91505092915050565b6000612ff18383613922565b60208301905092915050565b61300681613ee4565b82525050565b600061301782613dbd565b6130218185613deb565b935061302c83613dad565b8060005b8381101561305d5781516130448882612fe5565b975061304f83613dde565b925050600181019050613030565b5085935050505092915050565b61307381613ef6565b82525050565b600061308482613dc8565b61308e8185613dfc565b935061309e818560208601613f67565b6130a781614102565b840191505092915050565b60006130bd82613dd3565b6130c78185613e0d565b93506130d7818560208601613f67565b6130e081614102565b840191505092915050565b60006130f682613dd3565b6131008185613e1e565b9350613110818560208601613f67565b80840191505092915050565b6000613129601a83613e0d565b91507f54686973206b657920697320616c7265616479206d696e7465640000000000006000830152602082019050919050565b6000613169602b83613e0d565b91507f455243373231456e756d657261626c653a206f776e657220696e646578206f7560008301527f74206f6620626f756e64730000000000000000000000000000000000000000006020830152604082019050919050565b60006131cf603283613e0d565b91507f4552433732313a207472616e7366657220746f206e6f6e20455243373231526560008301527f63656976657220696d706c656d656e74657200000000000000000000000000006020830152604082019050919050565b6000613235602683613e0d565b91507f4f776e61626c653a206e6577206f776e657220697320746865207a65726f206160008301527f64647265737300000000000000000000000000000000000000000000000000006020830152604082019050919050565b600061329b601c83613e0d565b91507f4552433732313a20746f6b656e20616c7265616479206d696e746564000000006000830152602082019050919050565b60006132db602483613e0d565b91507f4552433732313a207472616e7366657220746f20746865207a65726f2061646460008301527f72657373000000000000000000000000000000000000000000000000000000006020830152604082019050919050565b6000613341601983613e0d565b91507f4552433732313a20617070726f766520746f2063616c6c6572000000000000006000830152602082019050919050565b6000613381602c83613e0d565b91507f4552433732313a206f70657261746f7220717565727920666f72206e6f6e657860008301527f697374656e7420746f6b656e00000000000000000000000000000000000000006020830152604082019050919050565b60006133e7603883613e0d565b91507f4552433732313a20617070726f76652063616c6c6572206973206e6f74206f7760008301527f6e6572206e6f7220617070726f76656420666f7220616c6c00000000000000006020830152604082019050919050565b600061344d602a83613e0d565b91507f4552433732313a2062616c616e636520717565727920666f7220746865207a6560008301527f726f2061646472657373000000000000000000000000000000000000000000006020830152604082019050919050565b60006134b3602983613e0d565b91507f4552433732313a206f776e657220717565727920666f72206e6f6e657869737460008301527f656e7420746f6b656e00000000000000000000000000000000000000000000006020830152604082019050919050565b6000613519602e83613e0d565b91507f45524337323155524953746f726167653a2055524920736574206f66206e6f6e60008301527f6578697374656e7420746f6b656e0000000000000000000000000000000000006020830152604082019050919050565b600061357f602083613e0d565b91507f4552433732313a206d696e7420746f20746865207a65726f20616464726573736000830152602082019050919050565b60006135bf603183613e0d565b91507f45524337323155524953746f726167653a2055524920717565727920666f722060008301527f6e6f6e6578697374656e7420746f6b656e0000000000000000000000000000006020830152604082019050919050565b6000613625602c83613e0d565b91507f4552433732313a20617070726f76656420717565727920666f72206e6f6e657860008301527f697374656e7420746f6b656e00000000000000000000000000000000000000006020830152604082019050919050565b600061368b602083613e0d565b91507f4f776e61626c653a2063616c6c6572206973206e6f7420746865206f776e65726000830152602082019050919050565b60006136cb603283613e0d565b91507f496e73756666696369656e742066756e64732e204d696e74696e6720636f737460008301527f20697320302e303033455448202b2047617300000000000000000000000000006020830152604082019050919050565b6000613731602983613e0d565b91507f4552433732313a207472616e73666572206f6620746f6b656e2074686174206960008301527f73206e6f74206f776e00000000000000000000000000000000000000000000006020830152604082019050919050565b6000613797602f83613e0d565b91507f4552433732314d657461646174613a2055524920717565727920666f72206e6f60008301527f6e6578697374656e7420746f6b656e00000000000000000000000000000000006020830152604082019050919050565b60006137fd602183613e0d565b91507f4552433732313a20617070726f76616c20746f2063757272656e74206f776e6560008301527f72000000000000000000000000000000000000000000000000000000000000006020830152604082019050919050565b6000613863603183613e0d565b91507f4552433732313a207472616e736665722063616c6c6572206973206e6f74206f60008301527f776e6572206e6f7220617070726f7665640000000000000000000000000000006020830152604082019050919050565b60006138c9602c83613e0d565b91507f455243373231456e756d657261626c653a20676c6f62616c20696e646578206f60008301527f7574206f6620626f756e647300000000000000000000000000000000000000006020830152604082019050919050565b61392b81613f4e565b82525050565b61393a81613f4e565b82525050565b600061394c82846130eb565b915081905092915050565b600061396382856130eb565b915061396f82846130eb565b91508190509392505050565b60006020820190506139906000830184612ffd565b92915050565b60006080820190506139ab6000830187612ffd565b6139b86020830186612ffd565b6139c56040830185613931565b81810360608301526139d78184613079565b905095945050505050565b600060208201905081810360008301526139fc818461300c565b905092915050565b6000602082019050613a19600083018461306a565b92915050565b60006020820190508181036000830152613a3981846130b2565b905092915050565b60006020820190508181036000830152613a5a8161311c565b9050919050565b60006020820190508181036000830152613a7a8161315c565b9050919050565b60006020820190508181036000830152613a9a816131c2565b9050919050565b60006020820190508181036000830152613aba81613228565b9050919050565b60006020820190508181036000830152613ada8161328e565b9050919050565b60006020820190508181036000830152613afa816132ce565b9050919050565b60006020820190508181036000830152613b1a81613334565b9050919050565b60006020820190508181036000830152613b3a81613374565b9050919050565b60006020820190508181036000830152613b5a816133da565b9050919050565b60006020820190508181036000830152613b7a81613440565b9050919050565b60006020820190508181036000830152613b9a816134a6565b9050919050565b60006020820190508181036000830152613bba8161350c565b9050919050565b60006020820190508181036000830152613bda81613572565b9050919050565b60006020820190508181036000830152613bfa816135b2565b9050919050565b60006020820190508181036000830152613c1a81613618565b9050919050565b60006020820190508181036000830152613c3a8161367e565b9050919050565b60006020820190508181036000830152613c5a816136be565b9050919050565b60006020820190508181036000830152613c7a81613724565b9050919050565b60006020820190508181036000830152613c9a8161378a565b9050919050565b60006020820190508181036000830152613cba816137f0565b9050919050565b60006020820190508181036000830152613cda81613856565b9050919050565b60006020820190508181036000830152613cfa816138bc565b9050919050565b6000602082019050613d166000830184613931565b92915050565b6000604051905081810181811067ffffffffffffffff82111715613d4357613d426140d3565b5b8060405250919050565b600067ffffffffffffffff821115613d6857613d676140d3565b5b601f19601f8301169050602081019050919050565b600067ffffffffffffffff821115613d9857613d976140d3565b5b601f19601f8301169050602081019050919050565b6000819050602082019050919050565b600081519050919050565b600081519050919050565b600081519050919050565b6000602082019050919050565b600082825260208201905092915050565b600082825260208201905092915050565b600082825260208201905092915050565b600081905092915050565b6000613e3482613f4e565b9150613e3f83613f4e565b9250827fffffffffffffffffffffffffffffffffffffffffffffffffffffffffffffffff03821115613e7457613e73614046565b5b828201905092915050565b6000613e8a82613f4e565b9150613e9583613f4e565b925082613ea557613ea4614075565b5b828204905092915050565b6000613ebb82613f4e565b9150613ec683613f4e565b925082821015613ed957613ed8614046565b5b828203905092915050565b6000613eef82613f2e565b9050919050565b60008115159050919050565b60007fffffffff0000000000000000000000000000000000000000000000000000000082169050919050565b600073ffffffffffffffffffffffffffffffffffffffff82169050919050565b6000819050919050565b82818337600083830152505050565b60005b83811015613f85578082015181840152602081019050613f6a565b83811115613f94576000848401525b50505050565b60006002820490506001821680613fb257607f821691505b60208210811415613fc657613fc56140a4565b5b50919050565b6000613fd782613f4e565b91507fffffffffffffffffffffffffffffffffffffffffffffffffffffffffffffffff82141561400a57614009614046565b5b600182019050919050565b600061402082613f4e565b915061402b83613f4e565b92508261403b5761403a614075565b5b828206905092915050565b7f4e487b7100000000000000000000000000000000000000000000000000000000600052601160045260246000fd5b7f4e487b7100000000000000000000000000000000000000000000000000000000600052601260045260246000fd5b7f4e487b7100000000000000000000000000000000000000000000000000000000600052602260045260246000fd5b7f4e487b7100000000000000000000000000000000000000000000000000000000600052604160045260246000fd5b6000601f19601f8301169050919050565b61411c81613ee4565b811461412757600080fd5b50565b61413381613ef6565b811461413e57600080fd5b50565b61414a81613f02565b811461415557600080fd5b50565b61416181613f4e565b811461416c57600080fd5b5056fe636c6173732041727447656e657261746f727b636f6e7374727563746f722874297b746869732e6374783d742e6374782c746869732e736c6f776d6f3d21312c746869732e736c6f776d6f44656c61793d742e736c6f776d6f44656c61792c746869732e72656e64657243616c6c6261636b3d742e72656e64657243616c6c6261636b2c746869732e696e737472756374696f6e733d5b5d7d456e61626c65536c6f774d6f64652874297b746869732e736c6f776d6f3d21747d6173796e632055706461746543616e76617328297b69662821746869732e7570646174696e6743616e766173297b746869732e7570646174696e6743616e7661733d21303b666f72286c65742074206f6620746869732e696e737472756374696f6e73297b69662821746869732e7570646174696e6743616e7661732972657475726e3b746869732e736c6f776d6f2626617761697420746869732e44656c617928746869732e736c6f776d6f44656c6179292c2766756e6374696f6e273d3d747970656f66207426267428297d746869732e7570646174696e6743616e7661733d21312c2766756e6374696f6e273d3d747970656f6620746869732e72656e64657243616c6c6261636b2626746869732e72656e64657243616c6c6261636b28297d7d526573657455706461746543616e76617328297b746869732e7570646174696e6743616e7661733d21312c746869732e696e737472756374696f6e733d5b5d7d5363616c65436f6e746578742874297b746869732e696e737472756374696f6e732e7075736828746869732e5f7363616c65436f6e746578742e62696e64287b6374783a746869732e6374787d2c7429297d4472617741746d6f7370686572652874297b746869732e696e737472756374696f6e732e7075736828746869732e5f6472617741746d6f7370686572652e62696e64287b6374783a746869732e6374787d2c7429297d44726177506f696e7428742c692c73297b746869732e696e737472756374696f6e732e7075736828746869732e5f64726177506f696e742e62696e64287b6374783a746869732e6374787d2c742c692c7329297d44726177436f6c28742c692c732c65297b746869732e696e737472756374696f6e732e7075736828746869732e5f64726177436f6c2e62696e64287b6374783a746869732e6374787d2c742c692c732c6529297d5f7363616c65436f6e746578742874297b746869732e6374782e7363616c6528742c74297d5f6472617741746d6f7370686572652874297b636f6e73747b6865696768743a692c77696474683a737d3d746869732e6374782e63616e7661737c7c7b7d3b746869732e6374782e66696c6c5374796c653d742c746869732e6374782e66696c6c5265637428302c302c692c73297d5f64726177506f696e7428742c692c73297b6c65747b66696c6c5374796c653a657d3d746869732e6374783b746869732e6374782e66696c6c5374796c653d732c746869732e6374782e66696c6c52656374284d6174682e726f756e642874292c4d6174682e726f756e642869292c312c31292c746869732e6374782e66696c6c5374796c653d657d5f64726177436f6c28742c692c732c65297b6c65747b66696c6c5374796c653a727d3d746869732e6374783b746869732e6374782e66696c6c5374796c653d652c746869732e6374782e66696c6c52656374284d6174682e726f756e642874292c4d6174682e726f756e642869292c312c4d6174682e726f756e64287329292c746869732e6374782e66696c6c5374796c653d727d536f7274426f64794461746128742c69297b6c657420733d743b72657475726e20733d742e736f72742828742c69293d3e692d74292c313d3d3d693f733a28733d742e736f72742828742c69293d3e742d69292c323d3d3d693f733a28733d743d5b2e2e2e742e66696c7465722828742c69293d3e692532292c2e2e2e742e66696c7465722828742c69293d3e212869253229292e736f72742828742c69293d3e692d74295d2c333d3d3d693f733a733d743d5b2e2e2e742e66696c7465722828742c69293d3e692532292c2e2e2e742e66696c7465722828742c69293d3e212869253229295d29297d447261775374617228742c692c73297b666f72286c657420653d733b653e3d303b652d2d297b6c657420723d3235352d3235352a28652f28732b3129292c613d746869732e47657447726579436f6c6f722872293b666f72286c657420723d2d732a653b723c3d732a653b722b2b29666f72286c657420733d2d653b733c3d653b732b2b29746869732e44726177506f696e7428742b722c692b732c61292c746869732e44726177506f696e7428742b732c692b722c61297d7d447261774d6f6f6e28742c692c732c65297b666f72286c657420723d742d733b723c3d742b733b722b2b297b636f6e737420613d4d6174682e666c6f6f7228322a4d6174682e73717274284d6174682e706f7728732c32292d4d6174682e706f7728722d742c322929293b746869732e44726177436f6c28722c692d4d6174682e666c6f6f7228612f32292c612c65297d7d426f6479427275736828742c692c732c65297b666f72286c657420723d303b723c742e6c656e6774683b722b2b297b6c657420613d745b725d2f342c6f3d2772676261283235352c3235352c3235352c302e3829272c6c3d277267626128302c302c302c302e3829273b666f72286c657420683d303b683c613b682b2b297b6c6574206e3d732b28682d612f32292c633d652d742e6c656e6774682f322b722c663d21312c773d21313b723e30262628663d28612d745b722d315d2f34292f32292c723c742e6c656e6774682d31262628773d4d6174682e6365696c2828612d745b722b315d2f34292f3229292c2821313d3d3d667c7c683c667c7c683e612d6629262628746869732e44726177506f696e74286e2c632d312c69292c746869732e44726177506f696e74286e2c632d312c6f29292c746869732e44726177506f696e74286e2c632c69292c2821313d3d3d777c7c683c777c7c683e612d7729262628746869732e44726177506f696e74286e2c632b312c69292c746869732e44726177506f696e74286e2c632b312c6c29297d7d7d4472617741737365742874297b6c65747b61737365743a692c783a732c793a652c66696c6c436f6c6f723a722c6d6972726f72483a617d3d743b69662821692972657475726e3b636f6e7374206f3d28742c692c73293d3e7b7377697463682873297b6361736520313a746869732e44726177506f696e7428742c692c6c293b627265616b3b6361736520323a746869732e44726177506f696e7428742c692c68293b627265616b3b6361736520333a746869732e44726177506f696e7428742c692c72293b627265616b3b64656661756c743a72657475726e7d7d2c6c3d746869732e47657447726579436f6c6f722830292c683d746869732e47657447726579436f6c6f7228323535293b723d727c7c746869732e47657447726579436f6c6f7228313238293b666f72286c657420743d303b743c692e6c656e6774683b742b2b296966286129666f72286c657420723d303b723c695b745d2e6c656e6774683b722b2b296f28732d722c652b742c695b745d5b725d293b656c736520666f72286c657420723d303b723c695b745d2e6c656e6774683b722b2b296f28732b722c652b742c695b745d5b725d297d47657447726579436f6c6f722874297b72657475726e2772676228272b742b272c272b742b272c272b742b2729277d44656c61792874297b72657475726e206e65772050726f6d69736528693d3e7b73657454696d656f75742828293d3e7b69282727297d2c74297d297d5265736574436f6e7465787428297b746869732e7570646174696e6743616e7661737c7c28746869732e6374782e7365745472616e73666f726d28312c302c302c312c302c30292c746869732e6374782e636c6561725265637428302c302c746869732e6374782e63616e7661732e77696474682c746869732e6374782e63616e7661732e68656967687429297d7d45786f4269747320616e64207468652045786f426974732057656220436f6d706f6e656e7420617265202863292032303231204d6174746865772057696c6265722028677265656e7a6574612e636f6d292e20496d616765732070726f6475636564206279207468652045786f426974732057656220436f6d706f6e656e74206172652077686f6c6c79206f776e656420627920746865204e465420686f6c646572206f6620746865206b65792076616c7565207573656420746f2070726f64756365207468617420696d6167652e20436f6d706c65746520736f75726365206f66207468652045786f4269747320576562436f6d706f6e656e7420697320617661696c61626c65206f6e204769744875622061742068747470733a2f2f6769746875622e636f6d2f6d77696c6265722f677a2d65786f62697420202020205669736974207468652065786f6269747320776562736974653a2068747470733a2f2f65786f626974732e677265656e7a6574612e636f6da26469706673582212203ce96e3ca77e435c6c1f9cbb89e5038da071793548446776aa947da13b63db5264736f6c63430008000033",
  "immutableReferences": {},
  "source": "// SPDX-License-Identifier: MIT\npragma solidity ^0.8.0;\n\nimport \"openzeppelin-solidity/contracts/token/ERC721/ERC721.sol\";\nimport \"openzeppelin-solidity/contracts/token/ERC721/extensions/ERC721Enumerable.sol\";\nimport \"openzeppelin-solidity/contracts/token/ERC721/extensions/ERC721URIStorage.sol\";\nimport \"openzeppelin-solidity/contracts/access/Ownable.sol\";\nimport \"openzeppelin-solidity/contracts/utils/Counters.sol\";\n\ncontract Exobits is ERC721, ERC721Enumerable, ERC721URIStorage, Ownable {\n    using Counters for Counters.Counter;\n    Counters.Counter private _tokenIds;\n    string[] public keys;\n    mapping(string => uint256) public _keyId;\n    \n    constructor() ERC721(\"ExoBits\", \"XOB\") {}\n    \n    function autoMint(string memory _key, string memory _uri) public payable returns (uint256) {\n        \n        require(_keyId[_key] == 0, \"This key is already minted\");\n        // Minting cost hard coded to 0.001 eth (2-3 USD)\n        require(msg.value >= 3000000000000000, \"Insufficient funds. Minting cost is 0.003ETH + Gas\");\n        _tokenIds.increment();\n\n        uint256 newItemId = _tokenIds.current();\n\n        _safeMint(msg.sender, newItemId);\n        keys.push(_key);\n        _keyId[_key] = newItemId;\n        _setTokenURI(newItemId, _uri);\n\n        //Transfer funds to the contract owner\n        address owner = owner();\n        payable(owner).transfer(msg.value);\n        \n        return newItemId;\n    }\n    \n    function _baseURI() internal pure override returns (string memory) {\n        return \"ipfs://\";\n    }\n    \n    function _burn(uint256 tokenId) internal override(ERC721, ERC721URIStorage) {\n        super._burn(tokenId);\n    }\n    \n    function _beforeTokenTransfer(address from, address to, uint256 tokenId)\n        internal\n        override(ERC721, ERC721Enumerable)\n    {\n        super._beforeTokenTransfer(from, to, tokenId);\n    }\n    \n    function tokenURI(uint256 tokenId)\n        public\n        view\n        override(ERC721, ERC721URIStorage)\n        returns (string memory)\n    {\n        return super.tokenURI(tokenId);\n    }\n    \n    function supportsInterface(bytes4 interfaceId)\n        public\n        view\n        override(ERC721, ERC721Enumerable)\n        returns (bool)\n    {\n        return super.supportsInterface(interfaceId);\n    }\n    \n    function ownerOfKey(string memory _key) external view returns(address){\n        address owner;\n        if(_keyId[_key] != 0){\n             owner = ownerOf(_keyId[_key]);\n        }\n        return owner;\n    }\n    \n    function tokenByKey(string memory _key) external view returns(uint256) {\n        return _keyId[_key];\n    }\n    \n    function tokensOfOwner(address _owner) external view returns(uint256[] memory ownerTokens) {\n        uint256 tokenCount = balanceOf(_owner);\n\n        if (tokenCount == 0) {\n            // Return an empty array\n            return new uint256[](0);\n        } else {\n            uint256[] memory result = new uint256[](tokenCount);\n            uint256 totalKeys = totalSupply();\n            uint256 resultIndex = 0;\n\n            // We count on the fact that all tokens have IDs starting at 1 and increasing\n            // sequentially up to the totalSupply count.\n            uint256 tokenId;\n\n            for (tokenId = 1; tokenId <= totalKeys; tokenId++) {\n                if (ownerOf(tokenId) == _owner) {\n                    result[resultIndex] = tokenId;\n                    resultIndex++;\n                }\n            }\n\n            return result;\n        }\n    }\n    \n    function JsSource() public pure returns (string memory) {\n        return \"class ArtGenerator{constructor(t){this.ctx=t.ctx,this.slowmo=!1,this.slowmoDelay=t.slowmoDelay,this.renderCallback=t.renderCallback,this.instructions=[]}EnableSlowMode(t){this.slowmo=!t}async UpdateCanvas(){if(!this.updatingCanvas){this.updatingCanvas=!0;for(let t of this.instructions){if(!this.updatingCanvas)return;this.slowmo&&await this.Delay(this.slowmoDelay),'function'==typeof t&&t()}this.updatingCanvas=!1,'function'==typeof this.renderCallback&&this.renderCallback()}}ResetUpdateCanvas(){this.updatingCanvas=!1,this.instructions=[]}ScaleContext(t){this.instructions.push(this._scaleContext.bind({ctx:this.ctx},t))}DrawAtmosphere(t){this.instructions.push(this._drawAtmosphere.bind({ctx:this.ctx},t))}DrawPoint(t,i,s){this.instructions.push(this._drawPoint.bind({ctx:this.ctx},t,i,s))}DrawCol(t,i,s,e){this.instructions.push(this._drawCol.bind({ctx:this.ctx},t,i,s,e))}_scaleContext(t){this.ctx.scale(t,t)}_drawAtmosphere(t){const{height:i,width:s}=this.ctx.canvas||{};this.ctx.fillStyle=t,this.ctx.fillRect(0,0,i,s)}_drawPoint(t,i,s){let{fillStyle:e}=this.ctx;this.ctx.fillStyle=s,this.ctx.fillRect(Math.round(t),Math.round(i),1,1),this.ctx.fillStyle=e}_drawCol(t,i,s,e){let{fillStyle:r}=this.ctx;this.ctx.fillStyle=e,this.ctx.fillRect(Math.round(t),Math.round(i),1,Math.round(s)),this.ctx.fillStyle=r}SortBodyData(t,i){let s=t;return s=t.sort((t,i)=>i-t),1===i?s:(s=t.sort((t,i)=>t-i),2===i?s:(s=t=[...t.filter((t,i)=>i%2),...t.filter((t,i)=>!(i%2)).sort((t,i)=>i-t)],3===i?s:s=t=[...t.filter((t,i)=>i%2),...t.filter((t,i)=>!(i%2))]))}DrawStar(t,i,s){for(let e=s;e>=0;e--){let r=255-255*(e/(s+1)),a=this.GetGreyColor(r);for(let r=-s*e;r<=s*e;r++)for(let s=-e;s<=e;s++)this.DrawPoint(t+r,i+s,a),this.DrawPoint(t+s,i+r,a)}}DrawMoon(t,i,s,e){for(let r=t-s;r<=t+s;r++){const a=Math.floor(2*Math.sqrt(Math.pow(s,2)-Math.pow(r-t,2)));this.DrawCol(r,i-Math.floor(a/2),a,e)}}BodyBrush(t,i,s,e){for(let r=0;r<t.length;r++){let a=t[r]/4,o='rgba(255,255,255,0.8)',l='rgba(0,0,0,0.8)';for(let h=0;h<a;h++){let n=s+(h-a/2),c=e-t.length/2+r,f=!1,w=!1;r>0&&(f=(a-t[r-1]/4)/2),r<t.length-1&&(w=Math.ceil((a-t[r+1]/4)/2)),(!1===f||h<f||h>a-f)&&(this.DrawPoint(n,c-1,i),this.DrawPoint(n,c-1,o)),this.DrawPoint(n,c,i),(!1===w||h<w||h>a-w)&&(this.DrawPoint(n,c+1,i),this.DrawPoint(n,c+1,l))}}}DrawAsset(t){let{asset:i,x:s,y:e,fillColor:r,mirrorH:a}=t;if(!i)return;const o=(t,i,s)=>{switch(s){case 1:this.DrawPoint(t,i,l);break;case 2:this.DrawPoint(t,i,h);break;case 3:this.DrawPoint(t,i,r);break;default:return}},l=this.GetGreyColor(0),h=this.GetGreyColor(255);r=r||this.GetGreyColor(128);for(let t=0;t<i.length;t++)if(a)for(let r=0;r<i[t].length;r++)o(s-r,e+t,i[t][r]);else for(let r=0;r<i[t].length;r++)o(s+r,e+t,i[t][r])}GetGreyColor(t){return'rgb('+t+','+t+','+t+')'}Delay(t){return new Promise(i=>{setTimeout(()=>{i('')},t)})}ResetContext(){this.updatingCanvas||(this.ctx.setTransform(1,0,0,1,0,0),this.ctx.clearRect(0,0,this.ctx.canvas.width,this.ctx.canvas.height))}}\";\n    }\n    \n    function AboutExoBits() public pure returns (string memory) {\n        return \"ExoBits and the ExoBits Web Component are (c) 2021 Matthew Wilber (greenzeta.com). Images produced by the ExoBits Web Component are wholly owned by the NFT holder of the key value used to produce that image. Complete source of the ExoBits WebComponent is available on GitHub at https://github.com/mwilber/gz-exobit     Visit the exobits website: https://exobits.greenzeta.com\";\n    }\n}\n",
  "sourcePath": "/Users/mwilber/Documents/repos/exobits/contracts/Exobits.sol",
  "compiler": {
    "name": "solc",
    "version": "0.8.0+commit.c7dfd78e.Emscripten.clang"
  },
  "schemaVersion": "3.4.1",
  "updatedAt": "2021-09-11T14:17:22.797Z",
  "devdoc": {
    "kind": "dev",
    "methods": {
      "approve(address,uint256)": {
        "details": "See {IERC721-approve}."
      },
      "balanceOf(address)": {
        "details": "See {IERC721-balanceOf}."
      },
      "getApproved(uint256)": {
        "details": "See {IERC721-getApproved}."
      },
      "isApprovedForAll(address,address)": {
        "details": "See {IERC721-isApprovedForAll}."
      },
      "name()": {
        "details": "See {IERC721Metadata-name}."
      },
      "owner()": {
        "details": "Returns the address of the current owner."
      },
      "ownerOf(uint256)": {
        "details": "See {IERC721-ownerOf}."
      },
      "renounceOwnership()": {
        "details": "Leaves the contract without owner. It will not be possible to call `onlyOwner` functions anymore. Can only be called by the current owner. NOTE: Renouncing ownership will leave the contract without an owner, thereby removing any functionality that is only available to the owner."
      },
      "safeTransferFrom(address,address,uint256)": {
        "details": "See {IERC721-safeTransferFrom}."
      },
      "safeTransferFrom(address,address,uint256,bytes)": {
        "details": "See {IERC721-safeTransferFrom}."
      },
      "setApprovalForAll(address,bool)": {
        "details": "See {IERC721-setApprovalForAll}."
      },
      "symbol()": {
        "details": "See {IERC721Metadata-symbol}."
      },
      "tokenByIndex(uint256)": {
        "details": "See {IERC721Enumerable-tokenByIndex}."
      },
      "tokenOfOwnerByIndex(address,uint256)": {
        "details": "See {IERC721Enumerable-tokenOfOwnerByIndex}."
      },
      "totalSupply()": {
        "details": "See {IERC721Enumerable-totalSupply}."
      },
      "transferFrom(address,address,uint256)": {
        "details": "See {IERC721-transferFrom}."
      },
      "transferOwnership(address)": {
        "details": "Transfers ownership of the contract to a new account (`newOwner`). Can only be called by the current owner."
      }
    },
    "version": 1
  },
  "userdoc": {
    "kind": "user",
    "methods": {},
    "version": 1
  }
}